:060000000A128A110C280F
:10000800FE00030EF5000A08F6000A128A11E92814
:100018000A128A110F2883133130FD000130FE00C7
:10002800A330FF00203084000A128A1194210A129A
:100038008A11BE01BF01C001C101C201F701F80167
:10004800F90183010A128A11922883120313B70156
:10005800B21F2F2830283728B109B209B10A03196D
:10006800B20AB701B70AB41F3A283B284428B30993
:10007800B409B30A0319B40A0130B5003508B70644
:10008800B801B9013108320403194B284C288328D8
:10009800B601B60A5A2801300310B10DB20DFF3E61
:1000A800031D50280130B5003508B607B21F5D287A
:1000B8005E284F2801300310B80DB90DFF3E031D0F
:1000C8005F2832083402031D6B2831083302031CF1
:1000D8006E286F2876283108B3023208031CB4034F
:1000E800B402381401300310B20CB10CFF3E031DEA
:1000F80077280130B602031D822883285E28370836
:100108000319872888288D28B809B909B80A031956
:10011800B90A3908B2003808B10008000A128A1171
:10012800B4210A128A1105300A128A11C3210A124F
:100138008A11053083120313B1000030B2000A128D
:100148008A1156210A128A110A128A1135210A12B5
:100158008A11831203139F143F08BB003E08BA009C
:100168000A128A1177210A128A118312031341088D
:10017800203E840083130008F7004208203E8400D4
:100188000008F8000508BC00BD013F083D06031D36
:10019800CF283E083C06031DD228D328D528861729
:1001A800D62886139F18D928DA28B028C730831292
:1001B8000313BC00DF28BC0BDE28E22883120313DC
:1001C8009F14B0280A128A110C280B1DEC28ED2860
:1001D80007298312031387017908031DF428F528DA
:1001E800FB28780888008717F901F90A0429790398
:1001F800031DFF2800290429770888008716F901BC
:10020800833081000B110B1C0A290B291C2983122E
:10021800031306191029112915290130F40074084F
:1002280085070618182919291B29013085020B1082
:10023800831203130C1F212922292E290A128A113D
:10024800CD210A128A11710883120313BF007008A6
:10025800BE000C1376088A00750E8300FE0E7E0E13
:1002680009002030831603178800890183160313B9
:10027800850105308600880187010914831203135C
:10028800850186018701880189018316031381137B
:10029800151415150F088F3960388F000F140B17B8
:1002A8008B170800831203130C13831603130C1700
:1002B8009F131F129F12831203131F083F394038E0
:1002C8009F003108B300B30DB30D1F083306C339BF
:1002D80033069F001F140F3083120313B300B30BB0
:1002E800732976290800103083120313B1000030F7
:1002F800B2003B08B4003A08B3000A128A11292058
:100308000A128A11831203133108C2003A080F39FE
:10031800C0004008C10008007E088A007F088200EB
:100328000A128A1190210A128A118000840A04088C
:100338007D0603190034FF0A0319FE0A94293F3485
:1003480006345B344F3466346D347D3407347F347F
:10035800673477347C3439345E3479347134053415
:1003680083160313811281110108F83902388100BC
:1003780083308312031381008B160B11080083123C
:100388000313B1000B108B15310883160313960065
:100398000800831203131E08F200F3017208F0002C
:0603A8007308F1000800DB
:08400000FF3FFF3FFF3FFF3FC0
:04400E00D420FF3F7C
:00000001FF
